{
  "_format": "hh-sol-artifact-1",
  "contractName": "BuyMeACoffee",
  "sourceName": "contracts/BuyMeACoffee.sol",
  "abi": [
    {
      "inputs": [],
      "stateMutability": "nonpayable",
      "type": "constructor"
    },
    {
      "anonymous": false,
      "inputs": [
        {
          "indexed": true,
          "internalType": "address",
          "name": "from",
          "type": "address"
        },
        {
          "indexed": false,
          "internalType": "uint256",
          "name": "timestamp",
          "type": "uint256"
        },
        {
          "indexed": false,
          "internalType": "string",
          "name": "name",
          "type": "string"
        },
        {
          "indexed": false,
          "internalType": "string",
          "name": "message",
          "type": "string"
        }
      ],
      "name": "NewMemo",
      "type": "event"
    },
    {
      "anonymous": false,
      "inputs": [
        {
          "indexed": true,
          "internalType": "address",
          "name": "previousOwner",
          "type": "address"
        },
        {
          "indexed": true,
          "internalType": "address",
          "name": "newOwner",
          "type": "address"
        }
      ],
      "name": "OwnershipTransferred",
      "type": "event"
    },
    {
      "inputs": [
        {
          "internalType": "string",
          "name": "_name",
          "type": "string"
        },
        {
          "internalType": "string",
          "name": "_message",
          "type": "string"
        }
      ],
      "name": "buyMeACoffee",
      "outputs": [],
      "stateMutability": "payable",
      "type": "function"
    },
    {
      "inputs": [],
      "name": "getMemos",
      "outputs": [
        {
          "components": [
            {
              "internalType": "address",
              "name": "from",
              "type": "address"
            },
            {
              "internalType": "uint256",
              "name": "timestamp",
              "type": "uint256"
            },
            {
              "internalType": "string",
              "name": "name",
              "type": "string"
            },
            {
              "internalType": "string",
              "name": "message",
              "type": "string"
            }
          ],
          "internalType": "struct BuyMeACoffee.Memo[]",
          "name": "",
          "type": "tuple[]"
        }
      ],
      "stateMutability": "view",
      "type": "function"
    },
    {
      "inputs": [],
      "name": "owner",
      "outputs": [
        {
          "internalType": "address",
          "name": "",
          "type": "address"
        }
      ],
      "stateMutability": "view",
      "type": "function"
    },
    {
      "inputs": [],
      "name": "renounceOwnership",
      "outputs": [],
      "stateMutability": "nonpayable",
      "type": "function"
    },
    {
      "inputs": [
        {
          "internalType": "address",
          "name": "newOwner",
          "type": "address"
        }
      ],
      "name": "transferOwnership",
      "outputs": [],
      "stateMutability": "nonpayable",
      "type": "function"
    },
    {
      "inputs": [],
      "name": "withdrawTips",
      "outputs": [],
      "stateMutability": "nonpayable",
      "type": "function"
    }
  ],
  "bytecode": "0x608060405234801561001057600080fd5b5061002d61002261003260201b60201c565b61003a60201b60201c565b6100fe565b600033905090565b60008060009054906101000a900473ffffffffffffffffffffffffffffffffffffffff169050816000806101000a81548173ffffffffffffffffffffffffffffffffffffffff021916908373ffffffffffffffffffffffffffffffffffffffff1602179055508173ffffffffffffffffffffffffffffffffffffffff168173ffffffffffffffffffffffffffffffffffffffff167f8be0079c531659141344cd1fd0a4f28419497f9722a3daafe3b4186f6b6457e060405160405180910390a35050565b610f688061010d6000396000f3fe6080604052600436106100555760003560e01c80633aaa74b21461005a578063715018a614610071578063865c5172146100885780638da5cb5b146100b3578063db136f6d146100de578063f2fde38b146100fa575b600080fd5b34801561006657600080fd5b5061006f610123565b005b34801561007d57600080fd5b506100866101e6565b005b34801561009457600080fd5b5061009d61026e565b6040516100aa9190610ba7565b60405180910390f35b3480156100bf57600080fd5b506100c8610451565b6040516100d59190610b8c565b60405180910390f35b6100f860048036038101906100f39190610916565b61047a565b005b34801561010657600080fd5b50610121600480360381019061011c91906108ed565b610609565b005b61012b610701565b73ffffffffffffffffffffffffffffffffffffffff16610149610451565b73ffffffffffffffffffffffffffffffffffffffff161461019f576040517f08c379a000000000000000000000000000000000000000000000000000000000815260040161019690610be9565b60405180910390fd5b6101a7610451565b73ffffffffffffffffffffffffffffffffffffffff166108fc479081150290604051600060405180830381858888f193505050506101e457600080fd5b565b6101ee610701565b73ffffffffffffffffffffffffffffffffffffffff1661020c610451565b73ffffffffffffffffffffffffffffffffffffffff1614610262576040517f08c379a000000000000000000000000000000000000000000000000000000000815260040161025990610be9565b60405180910390fd5b61026c6000610709565b565b60606001805480602002602001604051908101604052809291908181526020016000905b8282101561044857838290600052602060002090600402016040518060800160405290816000820160009054906101000a900473ffffffffffffffffffffffffffffffffffffffff1673ffffffffffffffffffffffffffffffffffffffff1673ffffffffffffffffffffffffffffffffffffffff1681526020016001820154815260200160028201805461032590610da8565b80601f016020809104026020016040519081016040528092919081815260200182805461035190610da8565b801561039e5780601f106103735761010080835404028352916020019161039e565b820191906000526020600020905b81548152906001019060200180831161038157829003601f168201915b505050505081526020016003820180546103b790610da8565b80601f01602080910402602001604051908101604052809291908181526020018280546103e390610da8565b80156104305780601f1061040557610100808354040283529160200191610430565b820191906000526020600020905b81548152906001019060200180831161041357829003601f168201915b50505050508152505081526020019060010190610292565b50505050905090565b60008060009054906101000a900473ffffffffffffffffffffffffffffffffffffffff16905090565b66038d7ea4c680003410156104c4576040517f08c379a00000000000000000000000000000000000000000000000000000000081526004016104bb90610c09565b60405180910390fd5b600160405180608001604052803373ffffffffffffffffffffffffffffffffffffffff16815260200142815260200184815260200183815250908060018154018082558091505060019003906000526020600020906004020160009091909190915060008201518160000160006101000a81548173ffffffffffffffffffffffffffffffffffffffff021916908373ffffffffffffffffffffffffffffffffffffffff1602179055506020820151816001015560408201518160020190805190602001906105939291906107cd565b5060608201518160030190805190602001906105b09291906107cd565b5050503373ffffffffffffffffffffffffffffffffffffffff167fc56140e05f516509ae28110e0f72e17558a7561630dad2647c3ae87d986e365c4284846040516105fd93929190610c29565b60405180910390a25050565b610611610701565b73ffffffffffffffffffffffffffffffffffffffff1661062f610451565b73ffffffffffffffffffffffffffffffffffffffff1614610685576040517f08c379a000000000000000000000000000000000000000000000000000000000815260040161067c90610be9565b60405180910390fd5b600073ffffffffffffffffffffffffffffffffffffffff168173ffffffffffffffffffffffffffffffffffffffff1614156106f5576040517f08c379a00000000000000000000000000000000000000000000000000000000081526004016106ec90610bc9565b60405180910390fd5b6106fe81610709565b50565b600033905090565b60008060009054906101000a900473ffffffffffffffffffffffffffffffffffffffff169050816000806101000a81548173ffffffffffffffffffffffffffffffffffffffff021916908373ffffffffffffffffffffffffffffffffffffffff1602179055508173ffffffffffffffffffffffffffffffffffffffff168173ffffffffffffffffffffffffffffffffffffffff167f8be0079c531659141344cd1fd0a4f28419497f9722a3daafe3b4186f6b6457e060405160405180910390a35050565b8280546107d990610da8565b90600052602060002090601f0160209004810192826107fb5760008555610842565b82601f1061081457805160ff1916838001178555610842565b82800160010185558215610842579182015b82811115610841578251825591602001919060010190610826565b5b50905061084f9190610853565b5090565b5b8082111561086c576000816000905550600101610854565b5090565b600061088361087e84610c93565b610c6e565b90508281526020810184848401111561089b57600080fd5b6108a6848285610d66565b509392505050565b6000813590506108bd81610f1b565b92915050565b600082601f8301126108d457600080fd5b81356108e4848260208601610870565b91505092915050565b6000602082840312156108ff57600080fd5b600061090d848285016108ae565b91505092915050565b6000806040838503121561092957600080fd5b600083013567ffffffffffffffff81111561094357600080fd5b61094f858286016108c3565b925050602083013567ffffffffffffffff81111561096c57600080fd5b610978858286016108c3565b9150509250929050565b600061098e8383610b04565b905092915050565b61099f81610d2a565b82525050565b6109ae81610d2a565b82525050565b60006109bf82610cd4565b6109c98185610cf7565b9350836020820285016109db85610cc4565b8060005b85811015610a1757848403895281516109f88582610982565b9450610a0383610cea565b925060208a019950506001810190506109df565b50829750879550505050505092915050565b6000610a3482610cdf565b610a3e8185610d08565b9350610a4e818560208601610d75565b610a5781610e69565b840191505092915050565b6000610a6d82610cdf565b610a778185610d19565b9350610a87818560208601610d75565b610a9081610e69565b840191505092915050565b6000610aa8602683610d19565b9150610ab382610e7a565b604082019050919050565b6000610acb602083610d19565b9150610ad682610ec9565b602082019050919050565b6000610aee601b83610d19565b9150610af982610ef2565b602082019050919050565b6000608083016000830151610b1c6000860182610996565b506020830151610b2f6020860182610b6e565b5060408301518482036040860152610b478282610a29565b91505060608301518482036060860152610b618282610a29565b9150508091505092915050565b610b7781610d5c565b82525050565b610b8681610d5c565b82525050565b6000602082019050610ba160008301846109a5565b92915050565b60006020820190508181036000830152610bc181846109b4565b905092915050565b60006020820190508181036000830152610be281610a9b565b9050919050565b60006020820190508181036000830152610c0281610abe565b9050919050565b60006020820190508181036000830152610c2281610ae1565b9050919050565b6000606082019050610c3e6000830186610b7d565b8181036020830152610c508185610a62565b90508181036040830152610c648184610a62565b9050949350505050565b6000610c78610c89565b9050610c848282610dda565b919050565b6000604051905090565b600067ffffffffffffffff821115610cae57610cad610e3a565b5b610cb782610e69565b9050602081019050919050565b6000819050602082019050919050565b600081519050919050565b600081519050919050565b6000602082019050919050565b600082825260208201905092915050565b600082825260208201905092915050565b600082825260208201905092915050565b6000610d3582610d3c565b9050919050565b600073ffffffffffffffffffffffffffffffffffffffff82169050919050565b6000819050919050565b82818337600083830152505050565b60005b83811015610d93578082015181840152602081019050610d78565b83811115610da2576000848401525b50505050565b60006002820490506001821680610dc057607f821691505b60208210811415610dd457610dd3610e0b565b5b50919050565b610de382610e69565b810181811067ffffffffffffffff82111715610e0257610e01610e3a565b5b80604052505050565b7f4e487b7100000000000000000000000000000000000000000000000000000000600052602260045260246000fd5b7f4e487b7100000000000000000000000000000000000000000000000000000000600052604160045260246000fd5b6000601f19601f8301169050919050565b7f4f776e61626c653a206e6577206f776e657220697320746865207a65726f206160008201527f6464726573730000000000000000000000000000000000000000000000000000602082015250565b7f4f776e61626c653a2063616c6c6572206973206e6f7420746865206f776e6572600082015250565b7f436f666665653a20496e73756666696369656e7420416d6f756e740000000000600082015250565b610f2481610d2a565b8114610f2f57600080fd5b5056fea2646970667358221220a1eb7517f025998a6184224ce08937c934ca40a8ec374867c5442b9a0bcb526064736f6c63430008040033",
  "linkReferences": {},
  "deployedLinkReferences": {}
}